:10000000B01A00205D11000000000000591100002E
:1000100000000000000000000000000000000000E0
:1000200000000000000000000000000000000000D0
:1000300000000000000000005911000059110000EC
:100040005911000059110000591100005911000008
:10005000510300005911000059110000790A0000F5
:1000600059110000591100005911000059110000E8
:1000700059110000591100006501000059110000DC
:1000800059110000591100005911000059110000C8
:10009000591100000000000000000000591100008C
:1000A00059110000591100005911000059110000A8
:1000B000000000005911000010B5064C2378002BF9
:1000C00007D1054B002B02D0044800E000BF0123FC
:1000D000237010BD4408002000000000C01C000078
:1000E000084B10B5002B03D00749084800E000BFBB
:1000F00007480368002B00D110BD064B002BFBD036
:100100009847F9E70000000048080020C01C0000E4
:10011000C01C00000000000070B5060CC400240ED6
:100120006501751B6B08E4010D4AA218D318303322
:100130001C780121314089000F268E40B4431C7089
:100140001C780004000C88402043C0B2187052197B
:10015000130040331A7801210A431A7070BDC0465B
:1001600000440041294B1B681A7ED20702D59A7DB4
:10017000D2071ED41A7E520702D59A7D52072ED47A
:10018000704722498A7E8A1812799A628A7E0132E1
:10019000D2B28A76097E914217DDEBE70128E9D1D8
:1001A00000229A62E6E7996A184A507E1218117185
:1001B00019E0164AD07E0228E3D014498A7E013223
:1001C000D2B28A76097E8A42E8DB01221A750F4A8A
:1001D000D27E022ACED100210C4AD176CAE70B4A40
:1001E000D27E012ADFD009494A7E0132D2B24A7654
:1001F000097E8A42C4DB04221A75044BDB7E012B84
:10020000BED10022014BDA76BAE7C0466008002072
:1002100010B5014B9847FEE74D0A000030B583B09A
:10022000224C234B2360234A136A80210B43136221
:10023000214A224B5A8001A901230B7000234B70E5
:100240008B7036201E4B98478022D2031D4B9A613B
:10025000362323771C481D4DA8471D48A8471D4835
:10026000A84723681C4A1A602368DA695207FCD43D
:10027000802292025A60DA695207FCD417221A735C
:100280001A6802210A431A60084B19680222CB69D6
:100290001A42FCD1054B18002030022101760022C1
:1002A0004276443319765A7603B030BD6008002098
:1002B000001C00420004004019400000000C0040F7
:1002C00029040000804400410300370019010000A8
:1002D00003002200030023000C00300070470000E0
:1002E0000C4B1B68002B06D1EFF31083002B07D0BB
:1002F0000022094B1A70074A1368013313607047D4
:1003000072B6BFF35F8F0022044B1A700132024BAA
:100310001A70F0E7D0080020D40800200000002068
:10032000084B1A68013A1A601B68002B09D1064B6A
:100330001B78002B05D00122044B1A70BFF35F8F8E
:1003400062B67047D0080020D408002000000020CA
:1003500070B50022104B1A70002310491F25104E53
:100360000D4C0AE00D4908E023780133DBB223701D
:100370000F2B10D800211F2BF4D928001840012280
:10038000824008691042EFD00A619B009B59002B04
:10039000EAD09847E8E770BD440900200018004003
:1003A00048090020044A137802210B431370537844
:1003B0005BB2002BFBDB70470018004000B583B038
:1003C000124A936940210B43936101A900230B70EA
:1003D00005200F4B984705200E4B98470E4A13787F
:1003E00001210B43137053785BB2002BFBDB0B4BEB
:1003F00019004031002204C39942FCD11022084B5D
:100400001A60084B984703B000BDC0460004004086
:1004100055090000C90800000018004048090020E4
:1004200000E100E0A503000000B583B001AB80222D
:100430001A700A785A704A789A708A78DA701900B5
:10044000014B984703B000BD190A000070B50C4974
:100450000B6A04788578407801221040800140269C
:10046000B34303432A40D201802083431343032232
:10047000224012020348034013430B6270BDC04682
:1004800000080040FFFCFFFFF0B5CE46474680B5B0
:10049000194B99469B6941788C4605780679C7784F
:1004A000447980780121084080000422934303436B
:1004B00060460840C00004329343034338000840BC
:1004C00080014027BB43034330000840C001802621
:1004D000B3430343072005402D02084803402B4344
:1004E00021400903064803400B434A4693610CBC74
:1004F00090469946F0BDC04600080040FFF8FFFF57
:10050000FFEFFFFF10B5037A9B061B0C4289920593
:10051000920D134318494B608379C2791343428883
:100520008488224313434278D20113430B6003783B
:10053000042B11D0202B0ED1037B9B06028A134380
:10054000C28912040D490A4013430B4A9360116893
:100550000B4B0B43136010BD037B9B06028A1343B6
:10056000C289120405490A401343034A9360136881
:1005700004210B431360EEE7D80800200000FF03BE
:1005800024040000082803D88000254B1B589F46F0
:10059000172044E0234A136A02210B431362002010
:1005A0003DE0204A936902210B439361002036E02D
:1005B0001C4A138A02210B43138200202FE0194AA0
:1005C000938A02210B439382002028E016490B688E
:1005D000022213430B60134B9A8419000E32CB682E
:1005E0001A42FCD0104A91680E4BD96252689A6246
:1005F00000229A8419001032CB681A42FCD00A4BB0
:100600001B689BB2074A9384002008E005494422F6
:100610008B5C022003438B54002000E000207047D5
:10062000601C000000080040D8080020F0B5CE464D
:10063000474680B58DB0C222D2004D4B9A604D49DD
:100640004B681E2293431C3A13434B6001AB1A7054
:100650000024494DE0B201A9A8470134252CF9D165
:10066000464C2368DB0442498A695B0E1B044448FC
:10067000024013438B610AA8012343708370002555
:10068000C57003710633037045713E4B98470420D3
:100690003D4B984705AB00225D809D809A71DA71D1
:1006A0003F2159813B3919705A7023689B0E3F2BAB
:1006B0005BD005A80372B723DB0003820723037313
:1006C0003833C381314B984704A800254570012673
:1006D000867005702E4B984706202B4FB8472D4B40
:1006E000984701AC029665702572657204232370E9
:1006F00021000120284B994698470120274B984616
:100700009847666065702572657208232370210022
:100710000820C8470820C047267021000020164B3B
:10072000984700201E4B98470720B8471049D02211
:10073000CB681340D02BFBD11A4A0023137253729B
:100740009372D37201A901224A604B700B724B72F3
:1007500007330B700020104B984700200F4B984731
:100760000DB00CBC90469946F0BD203BA1E7C046B9
:10077000000800400040004155090000246080004E
:10078000FFFF80FF890400008505000005050000CB
:100790004D040000A9070000CD07000085080000F7
:1007A000C908000000040040064A936908210B4371
:1007B00093610122044B1A7019000B781342FCD18B
:1007C0007047C04600040040000C004070B50600B1
:1007D00004000D782D0205434B78002B02D08023B6
:1007E000DB021D434B7A002B02D080231B031D43E9
:1007F0004868012810D9431E184234D1022830D944
:100800000223002201325B009842FBD812023243DD
:10081000140080235B031D430B7A002B02D080233E
:100820009B031D43134A53785BB2002BFBDB124B37
:100830009847124B1E700F4A53785BB2002BFBDBBC
:100840000C4B9C601A0053785BB2002BFBDB094A0F
:100850005368802149020B401D435560084B98475F
:1008600070BD0022D2E70402344380239B021D4363
:10087000D2E7C046000C0040E1020000080C004036
:100880002103000010B504000B4A53785BB2002B23
:10089000FBDB0A4B98470A4B1C70074A53785BB244
:1008A000002BFBDB044A516880235B020B4353603F
:1008B000044B984710BDC046000C0040E102000008
:1008C000040C00402103000010B50400064B9847BB
:1008D000064B1C70064A53888021C9010B43538084
:1008E000044B984710BDC046E1020000020C0040D6
:1008F000000C00402103000010B504000F4B984786
:100900000F4B1C700F4A53881B05180F53880E4954
:100910000B40538053880D490B40538011008022B7
:10092000D2014B881342FCD106494A88030206488B
:10093000024013434B80064B984710BDE102000074
:10094000020C0040000C0040FFF0FFFFFFBFFFFF64
:100950002103000010B50C7824020443024B984791
:10096000A4B2024B5C8010BDF9080000000C0040EE
:1009700030B5D378002B35D11378802B29D01B06C6
:1009800080246402234354780225AC4306D1947832
:10099000002C20D18024A402234341605478013CE0
:1009A000012C1CD90D042D0CA024E4052C431C4360
:1009B00084620D0CD02424062C431C438462D4781A
:1009C000002C22D15B031CD59378012B1ED04161F2
:1009D00017E00023D7E7C024E4022343DDE70D4CF2
:1009E0002340DFE741600C04240CA023DB052343F4
:1009F00083620C0CD0231B0623438362D378002B25
:100A000003D15378013B012B02D930BD8161F8E756
:100A10008160FAE7FFFFFBFF10B50A00C109002360
:100A2000002904D14309DB0105498C4663441F2496
:100A30002040012181401800024B984710BDC0465C
:100A400000440041710900007047000010B5054BDB
:100A50009847054B9847054B9847054B9847054BDA
:100A6000984710BD2D060000DD020000490A000075
:100A7000BD030000490A0000F0B5DE4657464E4669
:100A80004546E0B583B0C44B1F683D682B78DB0951
:100A900014D12E8CB6B2002E00D02DE2AE8BB6B2A1
:100AA000AB235B00FB5AAA225200BD5A1D403540C1
:100AB0000024BA4FB84B9946984608E22B8C9BB25B
:100AC000002B00D13DE1288C80B2B54B9847040043
:100AD0001F2800D935E1030008335B01ED18ED79DB
:100AE000EDB2AB0741D0AF4A01238340116899436F
:100AF0001160030008335B013A68944663440322A3
:100B0000DA713B18AE331B78DB072ED5A64B187075
:100B10003A68030008335B019B5C9B079B0F012B2A
:100B200000D194E04201A14B9B185A681201920C2B
:100B300090B29D494A805A689204920C8A805A6801
:100B40009B490A405A60002807D16201974B9B18C5
:100B50005B689B049B0C944A53808F4B1868A31CC2
:100B60001B01C3185B68904998476B071FD58A4BD8
:100B700018680268230008335B019B5C9B065B0FCF
:100B8000022B75D0230008335B019B5C9B065B0F37
:100B9000032B00D19EE06201844B9B1800229A72C5
:100BA00003682200083252019B180422DA712B07D5
:100BB00015D57C4A0123A340116899431160764BF7
:100BC0001868230008335B010268944663440822D6
:100BD000DA710319AE331B789B0700D594E0EB065E
:100BE00015D5704A0123A3401168994311606A4BDF
:100BF0001868230008335B0102689446634410229E
:100C0000DA710319AE331B785B0700D58AE0AB06B7
:100C100000D42FE1634A0123A34011689943116076
:100C20005D4B1868230008335B01026894466344F7
:100C30002022DA710319AE331B781B0700D419E1A7
:100C400059490C7024010419236B984712E14201A1
:100C5000564B9B185A689204920C53494A805A6822
:100C60001201920C8A805A68920B92035A6074E7C0
:100C7000230008335B019B5C9B079B0F012B81D1F9
:100C800061014A4B5B1808339B78DB0700D479E796
:100C9000444A0123A3401168994311606201434B08
:100CA0009B1800229A72230008335B010268944665
:100CB00063440422DA710319AE331B789B0700D416
:100CC00075E739490C7010234B702301C3189B6AD8
:100CD00098476CE7230008335B019B5C9B079B0FE5
:100CE000012B00D057E76201304B9B1800229A720B
:100CF000230008335B010268D2180421D171026815
:100D0000D31810225A7152E727490C706201274B01
:100D10009B18DB891F2213404B702301C3189B6A69
:100D200098475CE720490C706201204B9B185B6878
:100D30001B019B0C4B802301C318DB6A00219847E1
:100D400065E7AC8BA4B2630738D50423AB83154B9E
:100D50001D6801230120102602E00133082B29D051
:100D600002009A401542F8D039681A000832520140
:100D7000525C9206520F032AEFD11A000832520138
:100D8000525C9207920F012AE7D11A0008325201F1
:100D900089180E71E1E7C046F0080020841C0000AD
:100DA00065120000000900200409002088090020C5
:100DB000FF3F00F09D33FB5CDB0762D423070BD5BC
:100DC0000022AF4B1A60AF4B186808230268938368
:100DD0009D33C35C9B0758D4630608D5A94B18689C
:100DE0004023026893836533C35CDB0650D4A306BB
:100DF00008D5A44B18682023026893838533C35C0D
:100E00001B0748D4E30608D59E4B186810230268D8
:100E100093839533C35C5B0740D423060BD5002234
:100E2000974B1A60974B1868802302689383253389
:100E3000C35C9B0635D4E3050CD50022904B1A60A9
:100E4000904B186880235B00026893835B3BC35C14
:100E50005B0629D4A3050DD50022894B1A60894B66
:100E6000186880239B00026893835C3BFF3BC35C54
:100E70007F2B1CD803B03CBC90469946A246AB469B
:100E8000F0BD7B683800984798E783689847A3E7E8
:100E900043699847ABE703699847B3E7C368984746
:100EA000BBE783699847C6E7C3699847D2E7036AF7
:100EB0009847DFE723002E339B00424612689B5879
:100EC00071494246106898470134072CD2D063001C
:100ED000DB5B334203D04A461268126893832B428D
:100EE000F2D0062CE6D1694B1B891B0980225200E7
:100EF0001340654A1360DDE73C005934FF3400239A
:100F0000012294465F329146503A92460D3A9346FA
:100F1000B8462F00C3E02A003D00474690465B01DB
:100F2000ED180823FF33EB5C5B0615D54022082340
:100F3000FF33EA54883BFF3B42461343544A9371C4
:100F400060230B4296D0019B1B01FB18E0331B680A
:100F50004F49380098478DE70823FF33EB5C9B0629
:100F6000EED520220823FF33EA54494B42469A71BA
:100F7000E6E73D004746019A130008335B01ED1890
:100F80001023EB71BB186133FF331B78DB0600D4F1
:100F900070E7100052013D4B9B185B689B049B0C53
:100FA0003B490B800301FB18DC331B684046984724
:100FB00060E72A003D00474690465B01ED18082394
:100FC000FF33EB5C9B071ED502220823FF33EA5454
:100FD0002F48883BFF3B424613438371019B5A01D4
:100FE0002A4B9B1810335B689B049B0C43808B0738
:100FF00000D13FE7019B0D331B01FB185B682449BF
:101000003800984736E70823FF33EB5CDB07EED563
:1010100001220823FF33EA541D4843468371019B94
:101020005B011A4AD21853689B049B0C03805368D7
:101030001B019B0C8380DAE70822FF329A5C52077F
:1010400079D504200822FF329854019842010F4BB1
:101050009B189B7A9B0705D50C4B9B189A7A02200C
:1010600082439A720A4B42469A71019B08335B0194
:101070003A6894466344DB79DB075CD5FAE6C04600
:1010800000090020F0080020F40800208809002052
:10109000F808002001330134082B00D1EAE6DDB264
:1010A000019332001A4161461142F3D01A0008320E
:1010B0005201BA18D279D2B2217A11402078014077
:1010C0004846104200D026E75046104200D050E774
:1010D0005846104200D06CE70C201042DAD02A00AB
:1010E0003D00474690465B01EB180822FF329A5CB0
:1010F0001207A1D504380822FF3298540198420102
:10110000134B9B189B7E9B0705D5114B9B189A7E12
:10111000022082439A7680235B42424613430D4A63
:101120009371019B08335B013A6894466344DB7911
:101130009B0700D59EE60C230B4200D19AE6019B4B
:101140001B01FB18D8331B6802493800984791E609
:1011500088090020F808002070470000F8B52A4AE6
:101160002A4B9A4211D01A00294B9A420DD2294A91
:1011700003339B1A9B0801339B000022234822491A
:101180008C58845004329A42FAD1234A234B9A4213
:101190000AD2D34321495B1803218B4304339B18A4
:1011A000002102C29342FCD11D4AFF211D4B8B43FB
:1011B0009360FD3990235B001B4AD1501B4AD378C2
:1011C0000325AB4302242343D370D3780C27BB43BE
:1011D00008263343D370164B987B3022904320224D
:1011E00010439873997BB943314399739A7BAA430F
:1011F00022439A730F4A536880210B4353600E4B6E
:1012000098470E4B9847FEE7C01C000000000020E6
:10121000440800200400002044080020B00A0020F8
:1012200000ED00E0000000000070004100500041AF
:101230000048004100400041A512000011020000DA
:101240000300064A1268002A04D0044A1068C31832
:10125000136070470249014A1160F6E70C0900204B
:10126000B01A0020414208401C2101231B0498426F
:1012700001D3000C10391B0A984201D3000A083927
:101280001B09984201D30009043902A2105C401ADC
:101290007047C0461B1C1D1D1E1E1E1E1F1F1F1F2C
:1012A0001F1F1F1F70B50D4E0D4D0024AD1BAD103F
:1012B00005D0A300F35801349847A542F9D100F0B6
:1012C000EBFC084E084D0024AD1BAD1005D0A3006B
:1012D000F35801349847A542F9D170BDA41C000011
:1012E000A41C0000A41C0000B01C000010B5034B9F
:1012F0000100186800F004F810BDC046040000208A
:10130000F0B557464546DE464E46E0B50D000B3576
:1013100083B00700162D00D89FE007239D4300D51A
:10132000C4E0A94200D9C1E000F09EFAF823FF33DF
:101330009D4200D88FE2680A00D1BBE0042800D9A2
:1013400062E138239846A80980443930C100D24E62
:1013500071180839CC68A14219D0032362689A43F6
:101360001300521B0F2A00DDAAE0002A00DB88E0F0
:1013700003239C4608E06246636893435A1B0F2A86
:1013800000DD9DE0002A7CDAE468A142F3D132005E
:1013900034690832944200D190E103236168994393
:1013A0008946491B0F2900DD62E172613261002923
:1013B00000DB87E0B94A4B46914500D930E1DB08B4
:1013C000FF3A9910FF3A8A40DB0071689B190A4383
:1013D00099687260E360A1609C601300CC60012199
:1013E0008210914099426FD80B4205D1032290435D
:1013F000490004300B42FBD003239846C3009946B2
:10140000B144CC4682466346DC68A44507D157E127
:10141000002A00DB66E1E468A44500D150E14246C1
:10142000636893435A1B0F2AF2DD0120804661193D
:1014300005436560A068E5680836C560A860404659
:10144000F160B16010434860CE608E603800E250B9
:1014500000F012FA2000083021E0102926D83800C8
:1014600000F002FA1025182302208B4EF3181A0000
:101470005C68083A944200D12EE1032362689A43E3
:101480001300E268A168CA6091600122E3185968FC
:1014900038000A435A6000F0EFF92000083003B02A
:1014A0003CBC90469946A246AB46F0BD0C230020BA
:1014B0003B60F4E780213F2340208900984646E7BF
:1014C000404664E74B46E0E70323B46862689A430A
:1014D0009046AA4203D3531B0F2B00DD86E0230066
:1014E00043446F4A01936F4B93461B681268EB1895
:1014F000013200D168E16C4A944663441B0B1B0324
:1015000000930099380000F0BFF9030081460133D1
:1015100061D0019B834200D9FFE0644B009A9A4658
:101520001B689C46534662441A60019B110083422B
:1015300000D155E15B461B68013300D16CE14B469D
:10154000019A9B1A59185346196007234A461340BB
:1015500000D124E1082189465549D21A9144CB1A79
:10156000009A38004A441105090D5B1A19009B4680
:1015700000F08AF9431C00D142E14B46C01A012316
:101580005844184353461B685B441900534619607E
:101590004B46B3605860B44213D043460F2B00D87B
:1015A000E8E04346072260680C3B9343063A02405A
:1015B00005201A436260E218506090600F2B00D93A
:1015C00022E13C4B1A68914200D919603A4B1A68E3
:1015D000914200D919600323B46862689A43531B8F
:1015E000954200D9C9E00F2B00DCC6E0012229009A
:1015F00013431143651961603800B5606B6000F0FA
:101600003BF9200008304AE714287AD9542800D939
:10161000BAE06E239846280B80446F30C10096E6EE
:101620005A0A042A73D9142A00D9D0E011005C3276
:101630005B31D20008235B429C46B2189444634657
:101640009A6803239846944500D1ABE0434651681D
:101650009943894500D395E092689445F6D1634655
:10166000DA6873686146E260A1609460CC60B6E6B7
:10167000012360191D43656070613061C260826042
:101680001A004B460A4342603800E15000F0F4F87B
:101690002000083003E7C04630040020FF010000AE
:1016A00038080020400900200F1000001009002019
:1016B00008100000380900203C09002073688EE6FD
:1016C00008239B46073BDC449B46DA44434652468C
:1016D000134200D097E637E0DC680230A34200D125
:1016E00055E6CAE60122E318596838000A435A60F1
:1016F000E368A268D3609A6000F0BEF8200008306A
:10170000CDE65B23984680445C30C1001FE69A0911
:10171000110039323831D2008CE7B44200D05AE798
:101720004F4B009A9A461B689C46534662441100F0
:101730001A60FFE608235B429C46E1444B469B68E7
:101740000138994500D084E043460342F2D17368E2
:101750008B4373604900994200D9B5E6002900D156
:10176000B2E650460B4200D048E6490004300B4236
:10177000FBD043E601234A465360380000F07CF872
:1017800000208CE694466AE7AA235B00984211D8B1
:10179000DD3B9846E80B80447830C100D7E58023D4
:1017A0005B01DDE68910023B8B4072681343736076
:1017B000624657E72B4B98421CD87C239846A80CCE
:1017C00080447D30C100C2E51033009399E6542A6D
:1017D00026D84B461A0B11006F326E31D20029E722
:1017E0001B0500D0A6E60120009BB26843440343DA
:1017F0005360E6E6FE217E237F2089009846A6E519
:10180000002301209B46BDE621003800083100F08E
:10181000CBF853461968D4E65B464A461A6094E60C
:10182000AA2149008A4206D84B46DA0B11007832C9
:101830007731D200FEE60B498A4206D84B469A0C15
:1018400011007D327C31D200F4E6FE227E2192002E
:10185000F0E673687EE72B00E808083305E6C0462B
:10186000100900205405000010B5024800F07AF974
:1018700010BDC046980A002010B5024800F074F967
:1018800010BDC046980A0020002370B5064C050024
:1018900008002360FFF7D4FC431C00D070BD236810
:1018A000002BFBD02B60F9E7AC0A0020034B10B5EE
:1018B000002B02D0024800F005F810BD0000000027
:1018C000D518000010B5010000230022002000F010
:1018D0004DF910BD70B5094B094CE41AA41009D09C
:1018E000084AA518AD00ED182B68013C9847043D47
:1018F000002CF9D100F0DCF970BDC046BC1C000022
:10190000C01C0000FFFFFF3FF8B50C000600FFF70A
:10191000ABFF204FBB685D6803239D431E4B2C1B10
:101920009C466444240B1D4B013C24039C4207DD70
:1019300000213000FFF7A8FFBB685B19984204D074
:101940003000FFF799FF0020F8BD61423000FFF73B
:101950009BFF431C0DD00122BB682D1B15435D600E
:101960000F4B30001A68141B1C60FFF785FF012025
:10197000EAE700213000FFF787FFBA68831A0F2BD0
:10198000DEDD08490968401A0549086001210B435A
:101990005360D5E730040020EF0F0000FF0F000078
:1019A0001009002038080020F8B504000D1E3CD0B6
:1019B000FFF75AFF2900083948680123050003266C
:1019C0009D434A199C46614F5368B343BE68B24277
:1019D00056D06646536006420AD13E000868083673
:1019E000091A2D188868B04265D0CE68C660B0600C
:1019F0000120D6187668064233D0554B28434860FC
:101A00004D519D4212D8ED08FF3BAA10FF3B934079
:101A10007A68ED0013437B60EF19BB68CF608B6081
:101A2000B960D9602000FFF727FFF8BD680A0428D5
:101A300050D8A809020039303832C00038180838A8
:101A40008368032698424CD05A68B243954230D2FC
:101A50009B689842F8D1C368CB6088609960C16088
:101A6000E0E7ED183B4E9368B34242D0D26828437A
:101A7000DA609360364B48604D519D42D6D8C2E73C
:101A80006246EB18024206D10A68891A88689B18D8
:101A9000CA68C260906001221A434A602E4AB96047
:101AA00012689342BED32D4B20001968FFF72CFF1C
:101AB000B8E71800CFE76646D018406830423FD1FB
:101AC00090685D19D368C360986063462B434B6090
:101AD0004D51A7E7142814D802005C305B32C000D7
:101AE000ACE70123921093407A6813437B600300B4
:101AF000B2E72843D9609960CB608B6048604D5154
:101B000090E7542805D8280B02006F306E32C000D1
:101B100094E7AA225200904205D8E80B02007830E0
:101B20007732C0008AE70E4A904205D8A80C02001E
:101B30007D307C32C00081E7FE207E2280007DE780
:101B400063462B434B6015606CE7C04630040020B1
:101B5000FF010000380400203C080020400900205C
:101B6000540500007047C0467047C046F0B54E4669
:101B70004546DE465746E0B5364D83B00600286838
:101B800098460F009146FFF7EDFF334B1C68A423E6
:101B90005B00E058002852D043681F2B13DC5A1C0E
:101BA0000192002E28D1019A02339B0042601F50FF
:101BB0002868FFF7D9FF002003B03CBC9046994647
:101BC000A246AB46F0BD254B002B3DD0C8204000BF
:101BD000FFF78CFB002837D0A42200235200A15825
:101BE00043600160A050403283500432835001337F
:101BF00001930023002ED6D09A00924682444A4692
:101C0000882154466250C4225200914681444A467B
:101C10008739994012688B460A4394464A46614682
:101C20001160842241465200A150022EBBD1020015
:101C30005C468D32FF3211680C431460B3E720001C
:101C40004D30FF30E050A7E72868FFF78DFF0120F7
:101C50004042B1E740080020941C0000ED12000053
:101C6000B005000090050000900500001C06000073
:101C7000A2050000BE05000094050000CC05000090
:101C80000C06000004000800700080000100000144
:101C90000002000008000020F8B5C046F8BC08BCEF
:101CA0009E467047AD180000E10000001D020000D4
:101CB000F8B5C046F8BC08BC9E467047B9000000A5
:101CC000010000000800002000000000F4020020D5
:101CD0005C030020C403002000000000000000009E
:101CE00000000000000000000000000000000000F4
:101CF00000000000000000000000000000000000E4
:101D000000000000000000000000000000000000D3
:101D100000000000000000000000000000000000C3
:101D200000000000000000000000000000000000B3
:101D300000000000000000000000000000000000A3
:101D40000000000000000000000000000000000093
:101D50000000000000000000000000000000000083
:101D60000000000000000000000000000000000073
:101D700001000000000000000E33CDAB34126DE610
:101D8000ECDE05000B000000000000000000000079
:101D90000000000000000000000000000000000043
:101DA0000000000000000000000000000000000033
:101DB0000000000000000000000000000000000023
:101DC0000000000000000000000000000000000013
:1020F0000000000000000000300400203004002038
:10210000380400203804002040040020400400204F
:1021100048040020480400205004002050040020FF
:1021200058040020580400206004002060040020AF
:10213000680400206804002070040020700400205F
:10214000780400207804002080040020800400200F
:1021500088040020880400209004002090040020BF
:102160009804002098040020A0040020A00400206F
:10217000A8040020A8040020B0040020B00400201F
:10218000B8040020B8040020C0040020C0040020CF
:10219000C8040020C8040020D0040020D00400207F
:1021A000D8040020D8040020E0040020E00400202F
:1021B000E8040020E8040020F0040020F0040020DF
:1021C000F8040020F804002000050020000500208D
:1021D000080500200805002010050020100500203B
:1021E00018050020180500202005002020050020EB
:1021F000280500202805002030050020300500209B
:10220000380500203805002040050020400500204A
:1022100048050020480500205005002050050020FA
:1022200058050020580500206005002060050020AA
:10223000680500206805002070050020700500205A
:10224000780500207805002080050020800500200A
:1022500088050020880500209005002090050020BA
:102260009805002098050020A0050020A00500206A
:10227000A8050020A8050020B0050020B00500201A
:10228000B8050020B8050020C0050020C0050020CA
:10229000C8050020C8050020D0050020D00500207A
:1022A000D8050020D8050020E0050020E00500202A
:1022B000E8050020E8050020F0050020F0050020DA
:1022C000F8050020F8050020000600200006002088
:1022D0000806002008060020100600201006002036
:1022E00018060020180600202006002020060020E6
:1022F0002806002028060020300600203006002096
:102300003806002038060020400600204006002045
:1023100048060020480600205006002050060020F5
:1023200058060020580600206006002060060020A5
:102330006806002068060020700600207006002055
:102340007806002078060020800600208006002005
:1023500088060020880600209006002090060020B5
:102360009806002098060020A0060020A006002065
:10237000A8060020A8060020B0060020B006002015
:10238000B8060020B8060020C0060020C0060020C5
:10239000C8060020C8060020D0060020D006002075
:1023A000D8060020D8060020E0060020E006002025
:1023B000E8060020E8060020F0060020F0060020D5
:1023C000F8060020F8060020000700200007002083
:1023D0000807002008070020100700201007002031
:1023E00018070020180700202007002020070020E1
:1023F0002807002028070020300700203007002091
:102400003807002038070020400700204007002040
:1024100048070020480700205007002050070020F0
:1024200058070020580700206007002060070020A0
:102430006807002068070020700700207007002050
:102440007807002078070020800700208007002000
:1024500088070020880700209007002090070020B0
:102460009807002098070020A0070020A007002060
:10247000A8070020A8070020B0070020B007002010
:10248000B8070020B8070020C0070020C0070020C0
:10249000C8070020C8070020D0070020D007002070
:1024A000D8070020D8070020E0070020E007002020
:1024B000E8070020E8070020F0070020F0070020D0
:1024C000F8070020F807002000080020000800207E
:1024D000080800200808002010080020100800202C
:1024E00018080020180800202008002020080020DC
:1024F0002808002028080020FFFFFFFF000002003E
:04250000880A002025
:00000001FF
